:0A00000002254D9000F3E0FF2222DC
:10000B00022A47C0E0E5FA30E00375FA01D0E0328E
:10001B000219BAE58954FC4401F589758CCB758AB4
:10002B00EBD28CD2A9D2B92202211FE4FF022B9969
:10003B0002000EC0E0E5FA30E20375FA04D0E032BC
:10004B0002003E020420E86480F8E933E8336011D3
:10005B000460F0ED33EC337009E8FCE9FDEAFEEBEC
:10006B00FF220460DED3EB9FEA9EE99DE8C2E78C9A
:10007B00F0C2F795F0400CE8CCF8E9CDF9EACEFAEE
:10008B00EBCFFB1203EB85D0F05804700320D5B3F4
:10009B00E80470075002B2D502042A92D5EC046032
:1000AB00F7E4CCC0E0C398F8603B94186008400DAF
:1000BB00D0E0FB020402E4FBFAC9FC8028E830E440
:1000CB0006E4C9FBE4CAFCE830E305E4C9CACBFC8F
:1000DB00E854076010F8C3E913F9EA13FAEB13FBC2
:1000EB00EC13FCD8F130F52FC3E49CFCEF9BFFEE37
:1000FB009AFEED99FDD0E0FBEF4E4D4C701222DBDA
:10010B0003020427EC2CFCEF33FFEE33FEED33FD43
:10011B00ED30E7EB020402EF2BFFEE3AFEED39FD7B
:10012B00D0E0FB50130BBB000302042AED13FDEED2
:10013B0013FEEF13FFEC13FC020402EC4D6011E80D
:10014B00497017ED33EC3304600DE4FCFFFEFD2228
:10015B00E933E8330470F80204201203EB5804600F
:10016B0009E4CC2481500628500902042A284003B4
:10017B00020427C0E0EB4A7044B98006D0E0FB02D2
:10018B000416EF4E701CBD8008EBFFEAFEE9FD8004
:10019B00EBE98DF0A4FEE5F002022FE9CDF9EAFEC2
:1001AB00EBFFEF89F0A4FCE5F0CE89F0A42EFFE481
:1001BB0035F0CD89F0A42DFEE435F08067EF4E705D
:1001CB0005BD80D780C3EF8BF0A4ACF0EE8BF0A411
:1001DB002CFCE435F0F8EF8AF0A42CE5F038FCE4C5
:1001EB0033CB8DF0A42CFCE5F03BF8EE8AF0A42C7D
:1001FB00FCE5F038F8E433CF89F0A42CFCE5F038BB
:10020B00CF3400CE89F0A42FFFE5F03EFEE433C9D6
:10021B008DF0A42EFEE5F039CD8AF0A42FFFE5F08A
:10022B003EFEE43DFD33D0E0FB50070BBB000F025D
:10023B00042AEC2CFCEF33FFEE33FEED33FD02040E
:10024B000202042AEC5D046005E859047003020401
:10025B00201203EB580460F6EC4860F2EC7004FDDE
:10026B00FEFF22C860DB2481C85009C3986002508E
:10027B00060204279850CAF582E9294B4A7005AB50
:10028B008202041675F0007C1A7880C3EF9BEE9AFD
:10029B00ED99400DC3EF9BFFEE9AFEED99FDE84201
:1002AB00F0DC23ACF0D0E0FFD0E0FED0E0FDAB8281
:1002BB0020E7101BEB60BAEC2CFCEF33FFEE33FEA8
:1002CB00ED33FD020402E803F830E705C0F075F0EA
:1002DB0000EF2FFFEE33FEED33FD40B830E7C28069
:1002EB00AA74F8CC6480CCC86480C8F58204604FD3
:1002FB00C3EB9FF5F0EA9E42F0E99D42F0E89C4586
:10030B00F0603C501DE5825FFFE582D313CB5BCBE6
:10031B00F42B5582FB50280ABA002409B900200897
:10032B00801DE5825BFBE582D313CF5FCFF4C31354
:10033B002F5582FF50090EBE00050DBD00010CC3E9
:10034B00EB9FF5F0EA9E42F0E99D42F0E89C45F008
:10035B006007CC4820E701B3EC22ED33EC33600AA5
:10036B00047003BD8004ECB2E7FC2275F020800E14
:10037B0075F010800575F0087D007E007F003392CC
:10038B00D530D503120887EC334010EF33FFEE3333
:10039B00FEED33FDEC33FCD5F0ED22E5F0247EA22F
:1003AB00D513CC92E7CDCEFF22EDD2E7CD33EC3394
:1003BB0092D524814006E4FFFEFDFC22FCE4CFCE67
:1003CB00CDCC24E0501174FF80EDC3CC13CCCD13F6
:1003DB00CDCE13CECF13CF0470F030D5DE0208870D
:1003EB00E9D2E7C933E833F892D5EDD2E7CD33EC58
:1003FB0033FC5002B2D522EC30E7100FBF000C0ECD
:10040B00BE00080DBD00040BEB6014A2D5EB13FC72
:10041B00ED92E7FD2274FFFCFDFEFF22E480F8A2C3
:10042B00D574FF13FC7D80E480EFF920E73624F9C7
:10043B0050037907E4F42402FBE582158270021560
:10044B0083DBF6E024FB501BE96014E4F0E5821536
:10045B008270021583E004F0B40A08E4F0D9EE745C
:10046B0001F00A22C2D522ED33EC3392D5FA602A81
:10047B00B4FF33EDC2E77BFF60067A047997E42281
:10048B007A0479A020D5047A04799B224E614E0020
:10049B002B494E46002D494E4600E47A08F0A3DA6C
:1004AB00FC7B00740722C083C082ECC0E0EDC0E08F
:1004BB00EEC0E0EFC0E0EA75F010A4CAABF075F047
:1004CB004DA42BFBE435F0FCEA2410FAEB34C5FB0E
:1004DB00EC34D9FCEDC2E7FF75F056A4F42411C53A
:1004EB00F0F434C58FF0A42AE5F03BE43CF020E7B0
:1004FB00141205A7D0E0FFD0E0FED0E0FDD0E0FC69
:10050B0012024F8014F4041205A7D0E0FFD0E0FED6
:10051B00D0E0FDD0E0FC120146D082D083E0FAEDB2
:10052B00D2E7CD33EC332482FBE4C3CF33CFCE33CE
:10053B00CECD33CD33DBF37B0775F00A846004F04B
:10054B00A31B0AE5F0F0A38FF0740AA4FFACF08EA6
:10055B00F0740AA42CFEACF050010C8DF0740AA4BC
:10056B002CFDE435F0F0A3DBDE7407223F800000A6
:10057B004120000042C80000447A0000461C4000A5
:10058B0047C35000497424004B1896804CBEBC20C6
:10059B005A0E1BCA6753C21C749DC5AEFB60065432
:1005AB0007601C23231205D5EB543860091205C1D3
:1005BB001205D0120146ECF8EDF9EEFAEFCB22EB77
:1005CB001205D080F1543803241C900577FE93FC60
:1005DB000EEE93FD0EEE930ECE93FF22E709F60877
:1005EB00DFFA8046E709F208DFFA803E88828C83C7
:1005FB00E709F0A3DFFA8032E309F608DFFA807827
:10060B00E309F208DFFA807088828C83E309F0A398
:10061B00DFFA806489828A83E0A3F608DFFA8058C8
:10062B0089828A83E0A3F208DFFA804C80D280FAB9
:10063B0080C680D4806980F28033801080A680EAE7
:10064B00809A80A880DA80E280CA803389828A838C
:10065B00ECFAE493A3C8C582C8CCC583CCF0A3C87D
:10066B00C582C8CCC583CCDFE9DEE7800D89828AE1
:10067B0083E493A3F608DFF9ECFAA9F0EDFB2289EA
:10068B00828A83ECFAE0A3C8C582C8CCC583CCF0C0
:10069B00A3C8C582C8CCC583CCDFEADEE880DB8982
:1006AB00828A83E493A3F208DFF980CC88F0EF60B1
:1006BB00010E4E60C388F0ED2402B4040050B9F56E
:1006CB0082EB2402B4040050AF232345822390060F
:1006DB003773BB010689828A83E0225002E722BB73
:1006EB00FE02E32289828A83E49322BB010CE5821A
:1006FB0029F582E5833AF583E0225006E92582F855
:10070B00E622BBFE06E92582F8E222E58229F58284
:10071B00E5833AF583E49322BB010689828A83F051
:10072B00225002F722BBFE01F322F8BB010DE5823A
:10073B0029F582E5833AF583E8F0225006E9258214
:10074B00C8F622BBFE05E92582C8F222C2D5EC30E1
:10075B00E709B2D5E4C39DFDE49CFCEE30E715B28E
:10076B00D5E4C39FFFE49EFE12095FC3E49DFDE445
:10077B009CFC800312095F30D507C3E49FFFE49E06
:10078B00FE22C5F0F8A3E028F0C5F0F8E58215824B
:10079B0070021583E038F022A3F8E0C5F025F0F0E5
:1007AB00E582158270021583E0C838F0E82275F0F7
:1007BB0008758200EF2FFFEE33FECD33CDCC33CC5B
:1007CB00C58233C5829BED9AEC99E58298400CF576
:1007DB0082EE9BFEED9AFDEC99FC0FD5F0D6E4CEA4
:1007EB00FBE4CDFAE4CCF9A88222B800C1B90059D8
:1007FB00BA002DEC8BF084CFCECDFCE5F0CBF978A5
:10080B0018EF2FFFEE33FEED33FDEC33FCEB33FB38
:10081B0010D703994004EB99FB0FD8E5E4F9FA22C2
:10082B007818EF2FFFEE33FEED33FDEC33FCC933BD
:10083B00C910D7059BE99A4007EC9BFCE99AF90F85
:10084B00D8E0E4C9FAE4CCFB2275F010EF2FFFEEF1
:10085B0033FEED33FDCC33CCC833C810D7079BEC3C
:10086B009AE899400AED9BFDEC9AFCE899F80FD5B4
:10087B00F0DAE4CDFBE4CCFAE4C8F922C3E49FFF41
:10088B00E49EFEE49DFDE49CFC22EB9FF5F0EA9ECA
:10089B0042F0E99D42F0E89C45F022E8600FECC382
:1008AB0013FCED13FDEE13FEEF13FFD8F122E860FE
:1008BB000FEFC333FFEE33FEED33FDEC33FCD8F11A
:1008CB0022E493FC740193FD740293FE740393FF73
:1008DB0022ECF0A3EDF0A3EEF0A3EFF022A88285BB
:1008EB0083F0D083D0821208FF1208FF1208FF1288
:1008FB0008FFE473E493A3C583C5F0C583C8C58221
:10090B00C8F0A3C583C5F0C583C8C582C822F8E06B
:10091B00FBA3A3E0F925F0F0E582158270021583A5
:10092B00E0FA38F022EBF0A3EAF0A3E9F022D0834F
:10093B00D082F8E4937012740193700DA3A393F813
:10094B00740193F5828883E4737402936860EFA358
:10095B00A3A380DFBC000BBE0029EF8DF084FFAD9D
:10096B00F022E4CCF875F008EF2FFFEE33FEEC33FA
:10097B00FCEE9DEC984005FCEE9DFE0FD5F0E9E4F6
:10098B00CEFD22EDF8F5F0EE8420D21CFEADF07515
:10099B00F008EF2FFFED33FD4007985006D5F0F22E
:1009AB0022C398FD0FD5F0EA22900178E06408602D
:1009BB0003020BF8900173E0FEA3E0FFC390017BF1
:1009CB00E09FFD90017AE09EFCD3ED9410EC940037
:1009DB005003020BF8EEF0A3EFF0A3E0FF700B90C7
:1009EB00017FE094FF5057020B4FEFB401119001C0
:1009FB007FE0D394014003020B739001798029901F
:100A0B00017CE0FFB4020E900179E0C394FF500328
:100A1B00020B4F8029EFB40313900179E0D39401BB
:100A2B004003020B7390017D7401803190017CE0D7
:100A3B00FFB40410A3E0C394FF5003020B4F9001CB
:100A4B007C020B4FEFB4051C90017DE0D394014069
:100A5B0003020B7390017F7401F0900179F0900108
:100A6B007C020B4F90017CE0FFB4062490017FE0E9
:100A7B00C394FF5015900179E0C394FF500C900183
:100A8B007FE004F0900179020B4F90017C020B4F39
:100A9B00EFB4072E90017FE0D394014015900179BC
:100AAB00E0D39401400C90017FE014F090017902A7
:100ABB000B7390017F7401F090017DF090017C022B
:100ACB000B4F90017CE0FFB4082290017FE0C394B0
:100ADB00FF501490017DE0C394FF500B90017FE019
:100AEB0004F090017D805D90017C8058EFB4092C5F
:100AFB0090017FE0D39401401490017DE0D39401E9
:100B0B00400B90017FE014F090017D805B900179A8
:100B1B007401F090017DF090017C802890017CE0C5
:100B2B00FFB40A25900179E0C394FF501490017D26
:100B3B00E0C394FF500B900179E004F090017D80AD
:100B4B000390017CE004F0802FEFB40B2B90017924
:100B5B00E0D39401401790017DE0D39401400E90B7
:100B6B000179E014F090017DE014F0800B90017F8F
:100B7B007401F0E490017CF075F703E4F5DDF5DE2C
:100B8B00F5D1900177E0FFF5DFE4F5D390017FE03D
:100B9B00F5D29080987408F09080087405F075F782
:100BAB000475DD01E4F5DEF5D18FDFF5D390017926
:100BBB00E0F5D29080987409F09080097405F0F5F7
:100BCB00F7E4F5DDF5DEF5D1900177E0F5DFE4F53F
:100BDB00D390017DE0F5D2908098740AF090800A52
:100BEB007405F043DB38E5DB70FC43DA3822900107
:100BFB000BEFF0A3EDF0E4900112F0A3F0900115D0
:100C0B00F0A3F0A3F0A3F0FFFEFDFC90010DE0F8C4
:100C1B00A3E0F9A3E0FAA3E0FB1202EC600A4008A0
:100C2B009001147401F0801CE4900114F090010DFC
:100C3B00E0FCA3E0FDA3E0FEA3E0FF12036590013F
:100C4B000D1208DC90010DE0FCA3E0FDA3E0FEA378
:100C5B00E0FF1203B4900115EEF0A3EFF0FDAC062C
:100C6B00EC12037BA804A905AA06AB0790010DE0C3
:100C7B00FCA3E0FDA3E0FEA3E0FF120051E4FBFAAE
:100C8B0079C878421201461203B4900117801B9069
:100C9B000115E0FEA3E0FF4E6017900112E004F097
:100CAB007C007D0A120757900115EEF0A3EFF08040
:100CBB00DE9001137402F090010DE0FCA3E0FDA3A4
:100CCB00E0FEA3E0FF1203B4900115EEF0A3EFF0EA
:100CDB00900114E06077900111E0FB641090011516
:100CEB007033E0FEA3E0FFEE3395E0FDFC90011BBB
:100CFB001208DC900112E090011FF0A3EB120E35ED
:100D0B00900112E075F008121DE7900112E00475D6
:100D1B00F008020DFCE0FEA3E0FFEE3395E0FDFCD6
:100D2B0090011B1208DC900112E090011FF0900162
:100D3B0011E0900120120E35900112E075F00612B1
:100D4B001DE7900112E00475F006020DFC90010BFB
:100D5B00E0FFA3E0FD900111E090012CF07B2D1240
:100D6B001DFC900111E0FB641090010B7040E0241E
:100D7B0008FFC007900115E0FEA3E0FFEE3395E0FE
:100D8B00FDFC90011B1208DC900112E090011FF09A
:100D9B00A3EBF090010CE0FDD007120E4075F008AC
:100DAB00121DE2900112E0240275F0088043E0244A
:100DBB0006FFC007900115E0FEA3E0FFEE3395E0C0
:100DCB00FDFC90011B1208DC900112E090011FF05A
:100DDB00900111E0900120F090010CE0FDD0071282
:100DEB000E4075F006121DE2900112E0240275F020
:100DFB0006A4FF90010BE02FFFC007900117E0FE48
:100E0B00A3E0FFEE3395E0FDFC90011B1208DC9094
:100E1B000113E090011FF0900111E0900120F09080
:100E2B00010CE0FDD007120E4022F090010CE0FD0A
:100E3B0090010BE0FF900119EFF0A3EDF0E49001AE
:100E4B0027F0A3F0900120E0B40809A3E4F0A37409
:100E5B0006F08009900121E4F0A37408F0E4FFFE92
:100E6B00FDFC90011BE0F8A3E0F9A3E0FAA3E0FB83
:100E7B00C31208954003020F9190011BE0FCA3E005
:100E8B00FDA3E0FEA3E0FF12088790011B1208DC14
:100E9B00900119E0FFA3E0FD900120E090012CF000
:100EAB007B2D121DFCE4900123F0A3F090011FE0B9
:100EBB00F9FF900123E0FCA3E0FDC39FEC940040FD
:100ECB000302106C123179A804A905AA06AB07908E
:100EDB00011BE0FCA3E0FDA3E0FEA3E0FF1207F57E
:100EEB00E47B0AFAF9F81207F5AF03900125EAF053
:100EFB00A3EFF0A3E07002A3E0704C90011FE0247D
:100F0B00FFFFE434FFFE900123E0FCA3E0FDC39F51
:100F1B00EC9E5033A3E07002A3E07023ED04FF902E
:100F2B000121A3E0FEEF8EF0A4FF900119E02FFF4B
:100F3B00A3E0FD900120E090012CF07B208033900A
:100F4B000127E4F0A304F0900123A3E004FF900138
:100F5B0021A3E0FEEF8EF0A4FF900119E02FFFA379
:100F6B00E0FD900125A3E02430FB900120E09001EF
:100F7B002CF0121DFC900124E004F070069001236C
:100F8B00E004F0020EB7E4900123F0A3F090011FF0
:100F9B00E0F9FF900123E0FCA3E0FDC39FEC94007C
:100FAB00400302106C123179A804A905AA06AB07FD
:100FBB0090011BE0FCA3E0FDA3E0FEA3E0FF120702
:100FCB00F5E47B0AFAF9F81207F5AF03900125EA6D
:100FDB00F0A3EFF0A3E07002A3E0704990011FE0D3
:100FEB0024FFFFE434FFFE900123E0FCA3E0FDC3EC
:100FFB009FEC9E5030A3E07002A3E07020AF0590F1
:10100B000121A3E08FF0A4FF900119E02FFFA3E0D3
:10101B00FD900120E090012CF07B20803090012787
:10102B00E4F0A304F0900123A3E0FF900121A3E0DF
:10103B008FF0A4FF900119E02FFFA3E0FD90012595
:10104B00A3E02430FB900120E090012CF0121DFC5A
:10105B00900124E004F07006900123E004F0020FED
:10106B009822E49000F5F0A3F0A3F0A3F0C3900155
:10107B0090E0941F90018FE094005026122D54EFB6
:10108B00D39400401D12298290018FE475F0011258
:10109B0007A3FC747F25F0F58274003CF583EFF019
:1010AB0080CBC3900190E0940790018FE0940050A7
:1010BB00030212609000F5E0FEA3E0FFC3900190E5
:1010CB00E09FFD90018FE09EFCC3ED9407EC940034
:1010DB005003021213747F2FF58274003EF583E0E8
:1010EB00645560109000F6E004F070C89000F5E0D5
:1010FB0004F080C09000F5E0FEA3E0FF2480F582B1
:10110B0074003EF583E064AA60109000F6E004F0F2
:10111B0070A29000F5E004F0809A74812FF5827430
:10112B00003EF583E060099000F6E024020211EE28
:10113B009000F5E0FCA3E0FD2483F58274003CF500
:10114B0083E09000F7F0A3E4F074842DF582740033
:10115B003CF583E02407FFE433FE9000F8E02FF02A
:10116B009000F7E03EF0E0FEA3E0FFD39426EE9470
:10117B000040089000F6E0240380689000F5E0FC46
:10118B00A3E0FDC3900190E09DFD90018FE09CFCDE
:10119B00D3EF9DEE9C50719000F5E0FEA3E0247F11
:1011AB00F974003EFA7B019000F8E024FFFD9000FB
:1011BB00F7E034FFFC122BE6AD079000F7E0FAA343
:1011CB00E0FB9000F5E0FEA3E0FF2BFBEE3AFA7498
:1011DB007E2BF58274003AF583E06D60119000F67A
:1011EB00E02403F09000F5E03400F00210BF12177A
:1011FB00299000F7E0FEA3E0FF9000F6E02FF090BF
:10120B0000F5E03EF00210BF9000F5E0FEA3E0FF1A
:10121B00C3900190E09FFD90018FE09EFCF0A3ED49
:10122B00F0D39400EC9400402C747F2FF974003EA3
:10123B00FA9001177401F0A3EAF0A3E9F090018F83
:10124B00E0FFA3E090011ACFF0A3EFF07B017A004F
:10125B00797F1215C22278F57C007D017BFF7A3DE8
:10126B00799F7E007F061206B7E49000FBF0A3F097
:10127B00A31208E8000000001230147F88122A9E87
:10128B00122CE97FE0122A9E122CE9E4FF122A9E0F
:10129B00122CE91230147F89122A9E122CE97F013D
:1012AB00122B469000F5EFF07F01122B469000F6C3
:1012BB00EFF07F01122B469000F7EFF07F01122B1E
:1012CB00469000F8EFF07F01122B469000F9EFF0FB
:1012DB00E4FF122B469000FAEFF01231967B017A65
:1012EB000079F57D021229E59000F7E06F705690BA
:1012FB0000F5E0FEA3E07C002400FFEC3EFE900036
:10130B00FBF0A3EFF0FDAC06E412037BE4FBFA79F0
:10131B002F78431201467B007AFF797F78471202C0
:10132B004FE4FBFA793478C21200559000FD120895
:10133B00DC9000FDE0FCA3E0FDA3E0FEA3E0FF904A
:10134B00018B1208DC7B017A0079F87D021229E50A
:10135B009000FAE06F70659000F8E0FEA3E07C006F
:10136B002400FFEC3EFE9000FBF0A3EFF0FDAC067B
:10137B00E412037BE4FBFA79C878421201467B0046
:10138B007AFF797F784712024F9000FD1208DC90AC
:10139B0000FDE0FCA3E0FDA3E0FEA3E0FF9000FD59
:1013AB001208DC9000FDE0FCA3E0FDA3E0FEA3E04F
:1013BB00FF1203B4900189EEF0A3EFF0E4FFFE7D82
:1013CB00207C4190018BE0F8A3E0F9A3E0FAA3E0C5
:1013DB00FB1201461203B49001151208DC7F0112B7
:1013EB0021C5900189E0FEA3E0FFE4FCFD9001150F
:1013FB001208DC7F021221C5900189E0FCA3E0FDFD
:10140B00E412037B9001051208DC90018BE0FCA336
:10141B00E0FDA3E0FEA3E0FF021ED290010AEBF079
:10142B00A3EAF0A3E9F0EF24FAB41100400302158C
:10143B00BC90144A75F003A4C58325F0C5837302D1
:10144B00147D0214940215BC0214AB0214C20214D4
:10145B00D90214F00215070215BC0215BC02151EA9
:10146B0002153502154B02156102157702158D0217
:10147B0015A390010AE0FBA3E0FAA3E0F9A3E0FCBB
:10148B00A3E0FD122E100215B790010AE0FBA3E0BA
:10149B00FAA3E0F9A3E0FCA3E0FD122E3B0215B783
:1014AB0090010AE0FBA3E0FAA3E0F9A3E0FCA3E0C0
:1014BB00FD1231C50215B790010AE0FBA3E0FAA3B8
:1014CB00E0F9A3E0FCA3E0FD122E660215B7900134
:1014DB000AE0FBA3E0FAA3E0F9A3E0FCA3E0FD1212
:1014EB002E910215B790010AE0FBA3E0FAA3E0F9F5
:1014FB00A3E0FCA3E0FD122EBC0215B790010AE09D
:10150B00FBA3E0FAA3E0F9A3E0FCA3E0FD122EE7B6
:10151B000215B790010AE0FBA3E0FAA3E0F9A3E000
:10152B00FCA3E0FD122F120215B790010AE0FBA3FA
:10153B00E0FAA3E0F9A3E0FCA3E0FD122F3D806CE1
:10154B0090010AE0FBA3E0FAA3E0F9A3E0FCA3E01F
:10155B00FD122F68805690010AE0FBA3E0FAA3E08E
:10156B00F9A3E0FCA3E0FD122F93804090010AE069
:10157B00FBA3E0FAA3E0F9A3E0FCA3E0FD122FBE6E
:10158B00802A90010AE0FBA3E0FAA3E0F9A3E0FCB8
:10159B00A3E0FD1231D8801490010AE0FBA3E0FA1E
:1015AB00A3E0F9A3E0FCA3E0FD122FE990010FEFFC
:1015BB00F090010FE0FF22900114EBF0A3EAF0A3EF
:1015CB00E9F090011CEBF0A3EAF0A3E9F09001170E
:1015DB00E0F9A3E0FAA3E090011FC9F0A3EAF0A39E
:1015EB00E9F0900114E0FBA3E0FAA3E04A4B600C96
:1015FB00A3E0FBA3E0FAA3E04A4B70077B007A0061
:10160B0079002290011FE0FBA3E0FAA3E0F9C003ED
:10161B00C002C00190011CA3E0FAA3E0F9D3D08271
:10162B00D083D0E0E99582EA9583403390011FA3E4
:10163B00E0FAA3E0F990011AE0FEA3E0FFE92FF92D
:10164B00EA3EFAC003C002C001A3A3E0FAA3E0F98B
:10165B00D3D082D083D0E0E99582EA95834056E4DB
:10166B00900122F0A3F090011AE0FEA3E0FF90019D
:10167B0022E0FCA3E0FDC39FEC9E400302171D90EC
:10168B00011FE0FBA3E0FAA3E0F98D828C83120625
:10169B00F6FF90011CE0FBA3E0FAA3E0F98D828C2E
:1016AB0083EF120735900123E004F07006900122BE
:1016BB00E004F080B190011AE0FFA3E0900122CF8B
:1016CB00F0A3EFF0900122E0FEA3E0FFD39400EE35
:1016DB009400403E90011FE0FBA3E0FAA3E0F9EF7A
:1016EB0024FFFFEE34FFFE8F82F5831206F6FD908A
:1016FB00011CE0FBA3E0FAA3E0F98F828E83ED12CD
:10170B000735900123E024FFF0900122E034FFF035
:10171B0080B2900114E0FBA3E0FAA3E0F922900061
:10172B00F9EEF0A3EFF09000F9E0FEA3E02482F5D0
:10173B008274003EF583E0FF1209391765001768C4
:10174B0001176B02176E03178D0417920517990675
:10175B00185908185C0E00001881023066021AE353
:10176B0002326C9000F9E0FEA3E02485F582740050
:10177B003EF583E09000F3F0E4FBFA7D037F030278
:10178B00291990009E800390007D7401F022900037
:10179B00F9E0FCA3E0FD2483F58274003CF583E0C3
:1017AB00FE74842DF58274003CF583E0FDEDFF9013
:1017BB000100EEF0A3EFF0E49000FEF0A3F0900137
:1017CB0000E0FEA3E0FFC39000FFE09F9000FEE06F
:1017DB009E4003021881E0FEA3E0FF9000F9E0FCBD
:1017EB00A3E0FD2FFBEC3EFA74872BF58274003AD5
:1017FB00F583E09000FBF0A3E4F074882BF5827482
:10180B00003AF583E0FF9000FCE02FF09000FBE046
:10181B003400F074852DF974003CFA7B019000FEC6
:10182B00E0FEA3E029F9EA3EFA1225D99000FDEF7C
:10183B00F09000FCE02404FF9000FBE03400FE90ED
:10184B0000FFE02FF09000FEE03EF00217C9021BF4
:10185B00FC9000F9E0FEA3E0FF2485F58274003EC6
:10186B00F583E0FD74862FF58274003EF583E0FE70
:10187B00AF05FD12327622900116EBF0A3EAF0A32E
:10188B00E9F0A31208E8000000001206DDFFE4FCFB
:10189B00FDFE9001191208DC900119E0FCA3E0FD9C
:1018AB00A3E0FEA3E0FF78081208B9900119120813
:1018BB00DC900119E0F8A3E0F9A3E0FAA3E0FBC088
:1018CB0000C001C002C003900116E0FBA3E0FAA325
:1018DB00E0F99000011206F6FFD003D002D001D040
:1018EB0000EB4FFFEAFEE9FDE8FC9001191208DC62
:1018FB00900119E0FCA3E0FDA3E0FEA3E0FF780854
:10190B001208B99001191208DC900119E0F8A3E054
:10191B00F9A3E0FAA3E0FBC000C001C002C0039032
:10192B000116E0FBA3E0FAA3E0F99000021206F621
:10193B00FFD003D002D001D000EB4FFFEAFEE9FD50
:10194B00E8FC9001191208DC900119E0FCA3E0FD02
:10195B00A3E0FEA3E0FF78081208B9900119120862
:10196B00DC900119E0F8A3E0F9A3E0FAA3E0FBC0D7
:10197B0000C001C002C003900116E0FBA3E0FAA374
:10198B00E0F99000031206F6FFD003D002D001D08D
:10199B0000EB4FFFEAFEE9FDE8FC9001191208DCB1
:1019AB00900119E0FCA3E0FDA3E0FEA3E0FF22C041
:1019BB00E0C0F0C083C082C0D075D000C000C001B1
:1019CB00C002C003C004C005C006C007758DFA7500
:1019DB008BCB90016BE0FCA3E0FDA3E0FEA3E02426
:1019EB0001FFE43EFEE43DFDE43CFC90016B12087C
:1019FB00DCE47BFAFAF9F890016BE0FCA3E0FDA3C1
:101A0B00E0FEA3E0FF1207F5AC00AD01AE02AF03A1
:101A1B00E4FBFAF9F8C31208956003021AB49001BB
:101A2B0062E0FCA3E0FDA3E0FEA3E02401FFE43EA3
:101A3B00FEE43DFDE43CFC9001621208DCE47B28F3
:101A4B00F8900162E0FCA3E0FDA3E0FEA3E0FF122F
:101A5B0007F5AC00AD01AE02AF03E4FBFAF9F8C336
:101A6B00120895701F900167E0FCA3E0FDA3E0FE58
:101A7B00A3E02401FFE43EFEE43DFDE43CFC9001C9
:101A8B00671208DCE47F587E02FDFC900167E0F8EA
:101A9B00A3E0F9A3E0FAA3E0FBC3120895400A9078
:101AAB0001671208E800000000900174E024FFF0C9
:101ABB00900173E034FFF0900166E004F0D007D0A2
:101ACB0006D005D004D003D002D001D000D0D0D0A6
:101ADB0082D083D0F0D0E032E4900102F078037C26
:101AEB00017D017BFF7A3D7995FE7F0A1206B77B5C
:101AFB00FF7A3D7964122762900112EEF0A3EFF0AA
:101B0B007A3D7964122844900102EFF07BFF7A3D15
:101B1B00796B122762900112EEF0A3EFF07A3D7908
:101B2B006B122844900102EFF07BFF7A3D797C1217
:101B3B002762900112EEF0A3EFF0900102E0FF7E1E
:101B4B00007BFF7A3D797C12284D900102EFF07BF0
:101B5B00FF7A3D7984122762900112EEF0A3EFF029
:101B6B00900102E0FF7E007BFF7A3D798412284DC5
:101B7B00900102EFF07BFF7A3D798A122762900188
:101B8B0012EEF0A3EFF0900102E0FF7E007BFF7AF4
:101B9B003D798A12284D900102EFF07BFF7A3D7957
:101BAB0091122762900112EEF0A3EFF0900102E088
:101BBB00FF7E007BFF7A3D799112284D900102EF59
:101BCB00F07BFF7A3D7993122762900112EEF0A31E
:101BDB00EFF0900102E0FF7E007BFF7A3D799312DC
:101BEB00284D900102EFF0FB7A007D037F01022963
:101BFB00197D017F03122C739001151208E8000068
:101C0B0000147F041221C5E4FD7F05122C309001D6
:101C1B00151208E8000000017F061221C59001157E
:101C2B001208E8000000017F071221C5E4FD7F08C0
:101C3B00122C30E4FD7F09122C739001151208E869
:101C4B00000000FA7F0A1221C59001151208E80066
:101C5B000000FA7F0B1221C59001151208E8000055
:101C6B0000FA7F0C1221C59001151208E800000044
:101C7B00FA7F0D1221C57D0A7F0E122C737D0A7F10
:101C8B000F122C739001151208E8000000007F1052
:101C9B001221C59001151208E8000000027F1112F5
:101CAB0021C59001151208E8000000027F121221D5
:101CBB00C59001151208E8000000027F131221C520
:101CCB009001151208E8000000027F141221C57D57
:101CDB00017F15122C309001151208E8000000004E
:101CEB007F160221C5120003EF1460451470030226
:101CFB001D98147003021DA424036003021DC71258
:101D0B00320FEF5401FFE4FEFDFCFBFAF9F8C312AE
:101D1B0008957006900178048004E4900178F0FF38
:101D2B0012265F900178E0FF12226BE490015FF0C6
:101D3B002212320FE47B0CFAF9F81207F5AC00AD66
:101D4B0001AE02AF03E4FBFAF9F8C3120895700673
:101D5B0090017804802312320FE47B0CFAF9F8120D
:101D6B0007F5AC00AD01AE02AF03E47B06FAF9F860
:101D7B00C31208957010900178F0FF12265F900146
:101D8B0078E0FF12226B90015F7401F02290015FEB
:101D9B00E060326401703F802C90015FE06004646E
:101DAB000170339001787401F0FF12265F90017877
:101DBB00E0FF12226B90015F7403F02290015FE051
:101DCB006003B40111E4900178F0FF12265F9001DB
:101DDB0078E0FF12226B22900112E004A4FF900125
:101DEB000BE02FFFA3E0FD900111E090012CF07BA5
:101DFB002E90012AEDF0900129EFF0FDE490012DDA
:101E0B00F0A3F0EB24E090012DF0EDD3947F400A8A
:101E1B00E4900129F0A3E02402F090012CE064107F
:101E2B007077122DB7E490012EF090012EE0FFC3D6
:101E3B009408502590012DE075F010A42FF582E445
:101E4B0035F0F583E58224B4F582E5833434122D25
:101E5B002990012EE004F080D1900129E0FFA3E04E
:101E6B0004FD122DBFE490012EF090012EE0FFC374
:101E7B009408505290012DE075F010A42FF582E4D8
:101E8B0035F0F583E58224BCF582E5833434122DDD
:101E9B002990012EE004F080D1122DB7E490012E91
:101EAB00F090012EE0FFC39406501B90012DE075BE
:101EBB00F006A4248CF582E5F03432122D1F90012C
:101ECB002EE004F080DB229001011208DCE490018B
:101EDB0009F0A3F0900109F0A3F0900109E0FEA333
:101EEB00E0FFC39407EE64809480501DAB07EB7545
:101EFB00F012A4FFE4FD12230C90010AE004F07031
:101F0B00D9900109E004F080D17B077D037F061295
:101F1B00230C7B097D037F1812230C90012C74106A
:101F2B00F07B3A7D037F2A121DFC900101E0FCA39C
:101F3B00E0FDA3E0FEA3E0FF90010D1208DC900191
:101F4B00117410F07D037F34120BF97BFF7A327919
:101F5B00859001107410F07D037F641226E17B08DD
:101F6B007D067F0612230C7B097D067F1812230C3E
:101F7B0090012C7410F07B3A7D067F2A121DFC9089
:101F8B000105E0FCA3E0FDA3E0FEA3E0FF90010D43
:101F9B001208DC9001117410F07D067F34120BF9DE
:101FAB007BFF7A3279889001107410F07D067F6484
:101FBB000226E19000F51208DCE490007AF0A3F021
:101FCB00900000F0A3F0C2069000FBF09000FBE045
:101FDB00FFC39408506DEF25E025E02424F582E43F
:101FEB00343DF5831208CC9000F5E0F8A3E0F9A39B
:101FFB00E0FAA3E0FBC312089570409000FBE0FFF2
:10200B0025E025E02444F582E4343DF583E493FC9C
:10201B00740193FDC3E49D9000FAF074049C90004E
:10202B00F9F0EF25E025E02446F582E4343DF58315
:10203B007401934480908118F080089000FBE004B9
:10204B00F080899000FBE06408601C9080077404AA
:10205B00F0908006F09000F9E0FCA3E0FDECF59D1C
:10206B008D9C759AD0D2AE229000F4EFF09000EDDB
:10207B00A3E0FAA3E0AE02FF9000F0A3E0FAA3E026
:10208B00C39FFFEA9EFEEF64014E700302211E9078
:10209B0000F0E0FBA3A3E0F9C003C002C001900075
:1020AB00EDA3E0FAA3E0F9D3D082D083D0E0E99599
:1020BB0082EA958340239000F0A3E0FAA3E0AE02FE
:1020CB00FF9000EDA3E0FAA3E09FFFEA9EFEC3EFB3
:1020DB009417EE64809480503A9000EDA3E0FAA33D
:1020EB00E0C39000B69582EA9583400E9000ED74A4
:1020FB0001F0A37400F0A3749FF09000F4E0FF9044
:10210B0000EDE0FBA3E475F0011207A3A9F0FAEFD1
:10211B0012072322C0E0C0F0C083C082C0D075D0AC
:10212B0000C000C001C002C003C004C005C006C08F
:10213B0007E59A30E033E59A54FC4401F59A900098
:10214B0000E004F0E075F06484E5F0F0E0FF2402B9
:10215B00F582E43400F583E59BF074022FF582E4FD
:10216B003400F583E0FF122073E59A30E131E59AF4
:10217B0054FC4402F59A90007BE0FF90007AE06FEC
:10218B00601BA3E004F0E075F01484E5F0F0E024AC
:10219B0066F582E43400F583E0F59B8002C206D03D
:1021AB0007D006D005D004D003D002D001D000D088
:1021BB00D0D082D083D0F0D0E032AD07E4FFFE90D8
:1021CB00007EE0B401020F22122DE47D02122DE4F9
:1021DB00E4FD122DE47D04122DE4C006C00790012E
:1021EB0015E0FCA3E0FDA3E0FEA3E0FF78181208C6
:1021FB00A6AD07D007D006122DE4C006C00790018C
:10220B0015E0FCA3E0FDA3E0FEA3E0FF78101208AD
:10221B00A6AD07D007D006122DE4C006C00790016B
:10222B0015E0FCA3E0FDA3E0FEA3E0FF7808120895
:10223B00A6AD07D007D006122DE4C006C00790014B
:10224B0015E0FCA3A3A3E0FFE4AD07D007D0061273
:10225B002DE4AB07AA067D037F071229197F012204
:10226B00EF24F85005607902230B75F703E4F5DDD5
:10227B00F5DEF5D1900177E0FFF5DFE4F5D39001C2
:10228B007FE0F5D29080987408F09080087405F088
:10229B0075F70475DD01E4F5DEF5D18FDFF5D3902D
:1022AB000179E0F5D29080987409F090800974055B
:1022BB00F0F5F7E4F5DDF5DEF5D1900177E0F5DF2C
:1022CB00E4F5D390017DE0F5D2908098740AF090FC
:1022DB00800A7405F043DB38E5DB70FC43DA382207
:1022EB00E490017CF090017FF0900179F090017DFA
:1022FB00F0900173E0FFA3E090017ACFF0A3EFF031
:10230B002290010DEBF090010BEFF0A3EDF0E490B8
:10231B00010FF0A3F0122DBFE490010EF090010E0F
:10232B00E0FFC39410502990010DE075F040A424F8
:10233B00A4F582E5F0343A122D1F900110E004F061
:10234B00700690010FE004F090010EE004F080CDD8
:10235B0090010BE0FFA3E004FD122DBFE490010EF2
:10236B00F090010EE0FFC39410502990010DE07521
:10237B00F040A424C4F582E5F0343A122D1F9001ED
:10238B0010E004F0700690010FE004F090010EE0F5
:10239B0004F080CD22E4FFFEFDFC900184E090016F
:1023AB0081F020B0030F800C2097067E007F028007
:1023BB0003E4FEFF20042CEF4E6068900182E0FAEC
:1023CB00A3E0FBB50713EAB5060FFCAD039001883C
:1023DB007450F0C205D204804A900182EEF0A3EF54
:1023EB00F08040EF4E6022900188E07036740FF061
:1023FB00900182E03005084420FCA3E0FD802444DA
:10240B0040FCA3E0FDD205801A900182E030050468
:10241B00443080024410FCA3E0FDE4900182F0A361
:10242B00F0C204AE04AF052241017D0041017F00E3
:10243B0041017900C103C1014101600041017000FC
:10244B0041016F00C102C1004101610041017200F5
:10245B004101710044016B00000000440162000067
:10246B000000440167000000004101660041015F6C
:10247B00FF410185004201820000C10542018F002E
:10248B0000602C0133010202020304040205010661
:10249B00020702080109040A020B020C020D020ECC
:1024AB00040F04100211021202130214021501167A
:1024BB000241007C00007FAE12308D7F2012308DE8
:1024CB007F1012308D7FB012308D7FC812308DE4AB
:1024DB00FF12308D7F1012308D7F4012308D7F8137
:1024EB0012308D7FDF12308D7FA112308D7FA612BF
:1024FB00308D7FA812308D7F3F12308D7FA412302C
:10250B008D7FD312308DE4FF12308D7FD512308D3D
:10251B007FF012308D7FD912308D7F2212308D7F5C
:10252B00DA12308D7F1212308D7FDB12308D7F20CF
:10253B0012308D7F8D12308D7F1412308D7FAF0254
:10254B00308D787FE4F6D8FD758120022594023119
:10255B001EE493A3F8E493A34003F68001F208DF93
:10256B00F48029E493A3F85407240CC8C333C45450
:10257B000F4420C8834004F456800146F6DFE48004
:10258B000B0102040810204080902433E47E019359
:10259B0060BCA3FF543F30E509541FFEE493A360D6
:1025AB00010ECF54C025E060A840B8E493A3FAE431
:1025BB0093A3F8E493A3C8C582C8CAC583CAF0A382
:1025CB00C8C582C8CAC583CADFE9DEE780BE9001F1
:1025DB0002EBF0A3EAF0A3E9F01206DD900105F09F
:1025EB00FD9000011206F6900106F0900002120613
:1025FB00F6900107F0A3E4F09000031206F6FF90AB
:10260B000108E02FF0900107E03400F0AF05122D28
:10261B008875F002EFA42434F582E5F03401F583DC
:10262B00E0FF900106E06F60037F0022900105E060
:10263B00FF900102E0FBA3E0FAA3E02404F9E43AE3
:10264B00FA900107E0FDA3E090010DCDF0A3EDF0B2
:10265B0012142622EFB40800507B90266CF8282821
:10266B007302268402268A02269302269F0226A63E
:10267B000226B30226C50226D2E490017F804D903C
:10268B00017F74FFF0E48045E490017FF0900179C5
:10269B0074FF8010E490017FF0801490017F74FF31
:1026AB00F0900179F0E4802990017F74FFF0E490C1
:1026BB000179F090017D74FFF022E490017FF0909E
:1026CB00017974FFF0800A90017F74FFF09001791B
:1026DB00F090017DF02290010BEFF0A3EDF0A3EB56
:1026EB00F0A3EAF0A3E9F0E4900111F0A3F0A3F05A
:1026FB0090010DE0FBA3E0FAA3E0F9900113E0F5E4
:10270B00827583001206F6FB604C90010BE0FFA371
:10271B00E0FD900110E090012CF0121DFC900110D7
:10272B00E0B4081690010BE02406F0E0D3947E4051
:10273B001DE4F0A3E02402F0801490010BE02408C8
:10274B00F0E0D394784007E4F0A3E02402F090018A
:10275B0013E004F0809A2290010DEBF0A3EAF0A3B2
:10276B00E9F0A31208E80000000090010DE0FBA3C4
:10277B00E0FAA3E04A4B7005FFFEFDFC229001102E
:10278B001208E80000000090010DE0FBA3E475F0D7
:10279B00011207A3A9F0FA1206DD6021900110E0E7
:1027AB00FCA3E0FDA3E0FEA3E02401FFE43EFEE476
:1027BB003DFDE43CFC9001101208DC80CA90011036
:1027CB00E0FCA3E0FDA3E0FEA3E0FF22900186E086
:1027DB00FEA3E0FFBE100CBF0109E4900186F0A33D
:1027EB00F08010BE300DBF010AE4900186F0A3F01B
:1027FB0012322C900186E0B4102BA3E0B40226E435
:10280B00900186F0A3F0900178E0FF04F0EFC39401
:10281B00084002E4F0900178E0FF12265F90017807
:10282B00E0FF02226B900186E0B4300CA3E0B4020F
:10283B0007E4900186F0A3F022900102E0FF7E00F6
:10284B007BFF90010FEBF0A3EAF0A3E9F090010DF1
:10285B00EEF0A3EFF024BCF974003EFA7B01C0024A
:10286B00C001A3E0F9A3E0FAA3E0900117C9F0A31C
:10287B00EAF0A3E9F0900112E0FFA3E090011ACF78
:10288B00F0A3EFF0D001D0021215C2900112E0FEBE
:10289B00A3E0FF90010EE02FF090010DE03EF0E081
:1028AB00FEA3E0FF2290007BE0FD90007AE0FCC3EA
:1028BB009D5006C3ED9CFE800DED2414FE90007A16
:1028CB00E0FDC3EE9DFEEED3940140D9C2AE900065
:1028DB007AE004F0E075F01484E5F0F0E02466F59E
:1028EB0082E43400F583EFF0200620D2AE90007B1B
:1028FB00E004F0E075F01484E5F0F0E02466F58276
:10290B00E43400F583E0F59BD20622D2AE2290018F
:10291B0019EAF0A3EBF09000B67455F0A374AAF08B
:10292B00A3EDF0A3EFF0900119E0FCA3E0FDEC9018
:10293B0000BAF0EDA3F090011AE02407F090011912
:10294B00E03400F07B017A0079B6A3E024FFFD9020
:10295B000119E034FFFC122BE6AE07900119E0FCE5
:10296B00A3E0FD24B5F58274003CF583EFF07B0109
:10297B007A0079B6022AF29000EDE0FBA3E0FAA30D
:10298B00E0F9C003C002C001A3E0FBA3E0FAA3E09F
:10299B00F9D082D083D0E06B7008E965827003EACE
:1029AB00658360359000F0A3E0FAA3E0C39000B616
:1029BB009582EA9583400E9000F07401F0A37400A9
:1029CB00F0A3749FF09000F0E0FBA3E475F001120C
:1029DB0007A3A9F0FA1206DDFF22900101EBF0A389
:1029EB00EAF0A3E9F0A3EDF0A374FFF0E4FC90018F
:1029FB0004E0FDECC39D503EA3E0FE900101E0FB23
:102A0B00A3E0FAA3E0F9AF048F827583001206F6F8
:102A1B00FDEE6D900105F0E4FE900105E030E70757
:102A2B0025E06431F08007900105E025E0F00EEE23
:102A3B00B408E60C80B8900105E0FF22C0E0C0F0BE
:102A4B00C083C082C0D075D000C000C001C002C01E
:102A5B0003C004C005C006C007758CCB758AEB900C
:102A6B000184E014F0900188E0600214F01223A0BE
:102A7B00900186EEF0A3EFF0D007D006D005D0047E
:102A8B00D003D002D001D000D0D0D082D083D0F0F0
:102A9B00D0E032900131EFF09080007402F0C281EF
:102AAB00E4900132F0900131E0FF5480C413131312
:102ABB0054016004D2808002C280EF25E090013186
:102ACB00F07F0A7E0012321ED2817F0A7E00123204
:102ADB001EC2817F0A7E0012321E900132E004F08A
:102AEB00E0C3940840BF2290011BEBF0A3EAF0A3D4
:102AFB00E9F0A3ECF0A3EDF090011BE0FBA3E0FAEF
:102B0B00A3E04A4B6034A3E07002A3E0602C900179
:102B1B001E74FFF5F01207A345F0601E90011BE039
:102B2B00FBA3E0FAA3E0F91206DDFF12327F90015E
:102B3B001CE475F00112078D80D422900101EFF097
:102B4B00E4900103F090800004F0E4900102F0C2E5
:102B5B00817F0A7E0012321ED281900103E025E0B4
:102B6B00F0308003E004F07F0A7E0012321E9001E9
:102B7B0002E004F0E0C3940840D5900101E0700539
:102B8B0012315C800312313F900103E0FF22900071
:102B9B00F5EFF0E49000F8F0A3F09000F7F0900060
:102BAB00F7E0FFC394085032EF24B0FF12308DE4EE
:102BBB00FF12308D7F1012308DE49000F6F09000F4
:102BCB00F5E0FF122D2E9000F6E004F0E0C39484A4
:102BDB0040EC9000F7E004F080C42290011BEBF076
:102BEB00A3EAF0A3E9F0A3ECF0A3EDF0E4A3F0FF6C
:102BFB00FED390011FE09F90011EE09E40219001AB
:102C0B001BE0FBA3E475F0011207A3A9F0FA12066F
:102C1B00DDFD900120E02DF00FBF00010E80D29062
:102C2B000120E0FF22900110EDF0AC07E4FFFE90D5
:102C3B00007EE0B401020F22AD04122DE47D0112DF
:102C4B002DE4E4FD122DE47D01122DE4900110E042
:102C5B007003FD80027D01122DE4AB07AA067D03F4
:102C6B007F071229197F0122900110EDF0AC07E4C8
:102C7B00FFFE90007EE0B401020F22AD04122DE4A2
:102C8B007D04122DE4E4FD122DE47D01122DE49060
:102C9B000110E0FD122DE4AB07AA067D037F07129E
:102CAB0029197F01221230147F88122A9E122CE9D7
:102CBB007F30122A9E122CE97FA2122A9E122CE937
:102CCB001230147F88122A9E122CE97F27122A9E1B
:102CDB00122CE97F37122A9E122CE9023196E490CE
:102CEB000131F090800004F0D2807F0A7E00123216
:102CFB001ED2817F0A7E0012321E3080129001316B
:102D0B00E004F0E0D394FA40F11231967F0122C235
:102D1B00817F0022F583E5822FF582E43583F583ED
:102D2B00E493FF90012FEFF01230147F78122A9E5C
:102D3B00122CE97F40122A9E122CE990012FE0FF02
:102D4B00122A9E122CE90231969000F0E0FBA3E0D0
:102D5B00FAA3E0F9C003C002C0019000EDE0FBA3B1
:102D6B00E0FAA3E0F9D082D083D0E06B7008E9657C
:102D7B00827003EA65837F0060027F012290010964
:102D8B00EFF0123282E4FEEEC39F501D75F002EE9F
:102D9B00A42433F582E5F03401F583E0FD900109BD
:102DAB00E0FCED6C60030E80DEAF0622900129E0A3
:102DBB00FFA3E0FD90012FEFF0ED24B0FF12308D5B
:102DCB0090012FE054F0C4540F4410FF12308D903B
:102DDB00012FE0540FFF02308D900119EEF0A3EF9D
:102DEB00F024BCF974003EFA7B01ED12072390012D
:102DFB001AE004F07006900119E004F0900119E05C
:102E0B00FEA3E0FF221232619001101208DC900148
:102E1B0010E0FCA3E0FDA3E0FEA3E0FF9001151280
:102E2B0008DC7F061221C5EF7F00B401027F01226F
:102E3B001232619001101208DC900110E0FCA3E04B
:102E4B00FDA3E0FEA3E0FF9001151208DC7F071243
:102E5B0021C5EF7F00B401027F0122123261900184
:102E6B00101208DC900110E0FCA3E0FDA3E0FEA330
:102E7B00E0FF9001151208DC7F0A1221C5EF7F00DD
:102E8B00B401027F01221232619001101208DC9012
:102E9B000110E0FCA3E0FDA3E0FEA3E0FF90011511
:102EAB001208DC7F0B1221C5EF7F00B401027F01FA
:102EBB00221232619001101208DC900110E0FCA389
:102ECB00E0FDA3E0FEA3E0FF9001151208DC7F0CF0
:102EDB001221C5EF7F00B401027F012212326190F3
:102EEB0001101208DC900110E0FCA3E0FDA3E0FE52
:102EFB00A3E0FF9001151208DC7F0D1221C5EF7FB7
:102F0B0000B401027F01221232619001101208DC21
:102F1B00900110E0FCA3E0FDA3E0FEA3E0FF900115
:102F2B00151208DC7F101221C5EF7F00B401027F60
:102F3B0001221232619001101208DC900110E0FCAA
:102F4B00A3E0FDA3E0FEA3E0FF9001151208DC7FD8
:102F5B00111221C5EF7F00B401027F0122123261F1
:102F6B009001101208DC900110E0FCA3E0FDA3E03F
:102F7B00FEA3E0FF9001151208DC7F121221C5EFB2
:102F8B007F00B401027F01221232619001101208FE
:102F9B00DC900110E0FCA3E0FDA3E0FEA3E0FF90BA
:102FAB0001151208DC7F131221C5EF7F00B401025B
:102FBB007F01221232619001101208DC900110E0A7
:102FCB00FCA3E0FDA3E0FEA3E0FF9001151208DCDB
:102FDB007F141221C5EF7F00B401027F0122123250
:102FEB00619001101208DC900110E0FCA3E0FDA33E
:102FFB00E0FEA3E0FF9001151208DC7F161221C53D
:10300B00EF7F00B401027F01229080007402F0D2A6
:10301B00807F0A7E0012321ED2817F0A7E0012321E
:10302B001EC2807F0A7E0012321EC2817F0A7E0082
:10303B0002321E9000ED7401F0A37400F0A3749F94
:10304B00F09000F07401F0A37400F0A3749FF0E40F
:10305B0090007EF09000F374FFF022E4FF90007C70
:10306B00E0700DFEFD122DE490007C7401F08007E2
:10307B007E007D01122DE4EFFB7A007D03E4FF025D
:10308B002919900130EFF01230147F78122A9E121A
:10309B002CE9E4FF122A9E122CE9900130E0FF127A
:1030AB002A9E122CE90231961200091231EB1231D1
:1030BB00FD12001E1231B01230FB1230D712323A11
:1030CB00122CB01224C112303E02003690800574CF
:1030DB0004F09080C2740FF09080C174A0F09080C7
:1030EB00C47407F09080C374D0F0E49080C0F022D9
:1030FB009080087405F0908009F090800AF09001A0
:10310B007774FFF0E4A3F0FF12265F900178E0FFE5
:10311B0002226B7F007EC27D017C00121FBED2AFEC
:10312B001230B312106D1227D7121CF01209B41201
:10313B00126180EFC2819080007402F0C2807F0A1E
:10314B007E0012321ED2817F0A7E0012321EC28195
:10315B0022C2819080007402F0D2807F0A7E00121E
:10316B00321ED2817F0A7E0012321EC28122C3E937
:10317B009D14FD7F0A7E01AC051DEC6007EE8FF000
:10318B00A4FE80F3AF06E4FCFDFE229080007402E7
:10319B00F0C280D2817F0A7E0012321ED2807F0A5B
:1031AB007E0002321EE58954CF4410F589758DFAE5
:1031BB00758BCBD28ED2ABC2BB22123254AD077FF2
:1031CB0009122C73EF7F00B401027F0122123247E8
:1031DB00AD077F15122C30EF7F00B401027F012267
:1031EB009080187481F0E4F5F775FB91D2E843F900
:1031FB00012290800F7481F075F70275FB8FD2EA74
:10320B0043F90422900162E0FCA3E0FDA3E0FEA3DE
:10321B00E0FF22EF1FAC0670011E4C60030080F331
:10322B0022E490009EF0FBFA7D037F0402291990A3
:10323B0080017402F0908000F0023196900110EC46
:10324B00F0A3EDF01206DDFF22900110ECF0A3EDE0
:10325B00F01206DDFF22900114ECF0A3EDF0021842
:10326B0082E4FBFA7D037F02022919900102EFF041
:10327B00A3EDF0220228B07F1622274300255248E7
:10328B00000000000000000000002F0000000007FD
:10329B0000070000147F147F1400242A7F2A1200D9
:1032AB0062640813230036495522500000050300C1
:1032BB000000001C224100000041221C00001408E9
:1032CB003E08140008083E0808000000A06000003B
:1032DB0008080808080000606000000020100804BF
:1032EB0002003E5149453E0000427F4000004261D2
:1032FB00514946002141454B31001814127F1000F3
:10330B002745454539003C4A4949300001710905BB
:10331B000300364949493600064949291E00003643
:10332B003600000000563600000008142241000051
:10333B001414141414000041221408000201510942
:10334B000600324959513E007C1211127C007F4914
:10335B00494936003E41414122007F4141221C0038
:10336B007F49494941007F09090901003E4149490B
:10337B007A007F0808087F0000417F410000204051
:10338B00413F01007F08142241007F404040400034
:10339B007F020C027F007F0408107F003E414141F9
:1033AB003E007F09090906003E4151215E007F095D
:1033BB001929460046494949310001017F010100A5
:1033CB003F4040403F001F2040201F003F403840FF
:1033DB003F0063140814630007087008070061516D
:1033EB0049454300007F41410000552A552A5500AD
:1033FB000041417F000004020102040040404040B4
:10340B0040000001020400002054545478007F480F
:10341B0044443800384444442000384444487F0036
:10342B00385454541800087E0901020018A4A4A4AF
:10343B007C007F080404780000447D40000040803D
:10344B00847D00007F102844000000417F40000075
:10345B007C04180478007C08040478003844444445
:10346B003800FC242424180018242418FC007C08A1
:10347B0004040800485454542000043F44402000E6
:10348B003C4040207C001C2040201C003C40304035
:10349B003C004428102844001CA0A0A07C004464DD
:1034AB00544C4414141414141400000000000000B5
:1034BB00000000000000000000000000F800000009
:1034CB0000000000333000000000100C06100C064A
:1034DB0000000000000000000040C07840C07840B1
:1034EB0000043F04043F040400007088FC08300013
:1034FB0000001820FF211E0000F008F000E018006B
:10350B000000211C031E211E0000F0088870000023
:10351B00001E2123241927211010160E0000000075
:10352B00000000000000000000000000E018040292
:10353B0000000000071820400000020418E0000003
:10354B00000040201807000000404080F080404001
:10355B00000202010F01020200000000F000000057
:10356B00000101011F01010100000000000000002B
:10357B000080B070000000000000000000000000A0
:10358B000000010101010101010000000000000029
:10359B0000003030000000000000000000806018C8
:1035AB0004006018060100000000E010080810E09D
:1035BB0000000F102020100F00001010F80000006A
:1035CB00000020203F2020000000700808088870B1
:1035DB000000302824222130000030088888483031
:1035EB00000018202020110E000000C02010F80051
:1035FB000000070424243F240000F80888880808EA
:10360B00000019212020110E0000E01088881800FE
:10361B0000000F112020110E0000380808C83808D0
:10362B00000000003F000000000070880808887050
:10363B0000001C222121221C0000E010080810E0D1
:10364B00000000312222110F00000000C0C000005A
:10365B00000000003030000000000000800000007F
:10366B000000008060000000000000804020100877
:10367B000000010204081020004040404040404040
:10368B00000404040404040400000810204080001B
:10369B00000020100804020100007048080808F020
:1036AB00000000003036010000C030C828E810E0F0
:1036BB00000718272423140B000000C038E000007B
:1036CB0000203C23020227382008F88888887000E5
:1036DB0000203F202020110E00C0300808080838B9
:1036EB0000071820202010080008F808080810E030
:1036FB0000203F202020100F0008F88888E80810D1
:10370B0000203F20202320180008F88888E80810A4
:10371B0000203F200003000000C0300808083800DC
:10372B000007182020221E020008F808000008F8E5
:10373B0008203F210101213F20000808F80808005C
:10374B00000020203F2020000000000808F8080897
:10375B0000C08080807F00000008F888C02818080F
:10376B0000203F20012638200008F8080000000048
:10377B0000203F20202020300008F8F800F8F8083F
:10378B0000203F003F003F200008F830C00008F841
:10379B0008203F200007183F00E01008080810E041
:1037AB00000F10202020100F0008F808080808F060
:1037BB0000203F210101010000E01008080810E083
:1037CB00000F18242438504F0008F8888888887018
:1037DB0000203F2000030C302000708808080838B8
:1037EB00000038202121221C00180808F8080818AE
:1037FB00000000203F2000000008F808000008F837
:10380B0008001F202020201F000878880000C838DF
:10381B0008000007380E010000F80800F80008F84F
:10382B0000033C0700073C030008186880806818F9
:10383B000820302C03032C30200838C800C8380867
:10384B00000000203F2000000010080808C83808BE
:10385B00002038262120201800000000FE02020262
:10386B00000000007F40404000000C30C000000012
:10387B0000000000010638C00000020202FE00003A
:10388B0000004040407F00000000000402020204E0
:10389B00000000000000000000000000000000001D
:1038AB000080808080808080800002020400000005
:1038BB0000000000000000000000008080808000FD
:1038CB00000019242222223F2008F80080800000EB
:1038DB0000003F112020110E0000000080808000AE
:1038EB0000000E112020201100000000808088F8BD
:1038FB0000000E112020103F2000008080808000EF
:10390B0000001F222222221300008080F08888886A
:10391B00180020203F202000000000808080808045
:10392B0000006B94949493600008F80080808000F2
:10393B0000203F210000203F2000809898000000CD
:10394B00000020203F2020000000000080989800FD
:10395B000000C08080807F000008F800008080801D
:10396B0000203F24022D302000000808F800000042
:10397B00000020203F2020000080808080808080FD
:10398B0000203F20003F20003F808000808080008F
:10399B0000203F210000203F20000080808080001D
:1039AB0000001F202020201F00808000808000004E
:1039BB000080FFA12020110E00000000808080807D
:1039CB0000000E112020A0FF80808080008080806E
:1039DB000020203F2120000100000080808080809B
:1039EB00000033242424241900008080E080800010
:1039FB00000000001F20200000808000000080805D
:103A0B0000001F202020103F20808080000080803D
:103A1B008000010E3008060100808000800080804D
:103A2B00800F300C030C300F0000808000808080F2
:103A3B00000020312E0E312000808080000080801D
:103A4B008080818E701806010000808080808080CD
:103A5B00000021302C2221300000000000807C026D
:103A6B000200000000003F404000000000FF00008B
:103A7B000000000000FF0000000002027C8000003C
:103A8B00000040403F00000000000601010202045C
:103A9B000400000000000000000010109010101136
:103AAB0016101010D01010000000000000000000D5
:103ABB0000000000000000000040404040435C401C
:103ACB0040504C43404040400000000000000000CC
:103ADB000000000000000000004020D04C4344C810
:103AEB00102000F80000FF000000000000000000A4
:103AFB0000000000000000000000003F4044484769
:103B0B004070000F40807F000000000000000000AC
:103B1B000000000000000000001060028C0020106C
:103B2B002824E324281020200000000000000000BF
:103B3B0000000000000000000004047E0120110DB5
:103B4B0041817F01050931000000000000000000E9
:103B5B0000000000000000000000C2BA8282FE825A
:103B6B0080FC061544847C0000000000000000006F
:103B7B0000000000000000000020100846817F00BC
:103B8B00101312125292423E00000000000000007F
:103B9B00000000000000000000404042CC0000008C
:103BAB00FF0000FE0000FF0000000000000000000E
:103BBB000000000000000000000000003F108860C3
:103BCB001F00003F0000FF0000000000000000008D
:103BDB000000000000000000002030AC633004A4A3
:103BEB00643C27E404040400000000000000000013
:103BFB0000000000000000000022672212122011BA
:103C0B000D41817F0105093000000000000000001C
:103C1B00000000000000000000443414D45F545432
:103C2B005454545FD41454340000000000000000BE
:103C3B000000000000000000000000F84B4A4A4A58
:103C4B004A4A4A4A4BF800000000000000000000FE
:103C5B000000000000000000001060028C0000FE5D
:103C6B009292929292FE0000000000000000000071
:103C7B0000000000000000000004047E01407E42B2
:103C8B00427E427E42427E40000000000000000067
:103C9B000000000000000000001060028C00FE928B
:103CAB009292929292FE0000000000000000000031
:103CBB0000000000000000000004047E0144485096
:103CCB007F40407F5048444000000000000000004F
:103CDB000000000000000000000000FC242424FC75
:103CEB00252624FC242424040000000000000000EE
:103CFB0000000000000000000040308F80844C5515
:103D0B00252525554C808080000000000000000018
:103D1B00000000000000000000000004B0000009DB
:103D2B0060000012C00000258000004B00000096D0
:103D3B00000000E1000001C20001A0001F00D00044
:103D4B001F0068001F0034001F001A001F000D0029
:103D5B001F000A001B0005001B7B2270223A220069
:103D6B007A7566713374776565786F3570326877FD
:103D7B0000222C2276223A2200312E302E300022C5
:103D8B002C226D223A0032007D0000000000000062
:0A3D9B00000000000000000000001E
:00000001FF
